:100000000C946A000C94290F0C94020F0C9492002B
:100010000C9492000C9492000C9492000C94920018
:100020000C9492000C9492000C9492000C94A80FE3
:100030000C9492000C9492000C9492000C949200F8
:100040000C94B80E0C9492000C94760F0C94500FF4
:100050000C9492000C9492000C9492000C949200D8
:100060000C9492000C9492000000000023002600E3
:10007000290072740492740448940478C40C72B415
:100080000400000000240027002A000000000025D2
:100090000028002B000404040404040404020202E7
:1000A00002020203030303030301020408102040B9
:1000B0008001020408102001020408102000000042
:1000C0000800020100000304070000000000000017
:1000D0000000EA1011241FBECFEFD8E0DEBFCDBF75
:1000E00012E0A0E0B1E0EEE4FEE202C005900D9265
:1000F000A03BB107D9F728E0A0EBB2E001C01D9208
:10010000A53BB207E1F710E0CAE6D0E004C02197B2
:10011000FE010E94DA15C936D107C9F70E94B9114C
:100120000C9425170C9400008230B8F4E82FF0E00E
:10013000EE0FFF1FE050FF4F71836083813039F075
:1001400080916900836080936900E89A08958091A6
:1001500069008C6080936900E99A0895833081F08A
:1001600028F4813099F08230A9F008958730A9F001
:100170008830C9F08430B1F4809180008F7D03C055
:10018000809180008F7780938000089584B58F7769
:1001900084BD089584B58F7DFBCF8091B0008F77AB
:1001A0008093B00008958091B0008F7DF9CF1F93A8
:1001B000CF93DF93282F30E0F901E354FF4F849170
:1001C000F901E755FF4FD491F901EB56FF4FC49168
:1001D000CC23A9F0162F81110E94AE00EC2FF0E085
:1001E000EE0FFF1FE557FF4FA591B4918FB7F8941D
:1001F000EC91111108C0D095DE23DC938FBFDF9105
:10020000CF911F910895DE2BF8CFCF93DF9390E02D
:10021000FC01E755FF4F24918B569F4FFC018491C1
:100220008823D1F090E0880F991FFC01EF57FF4F12
:10023000A591B491FC01E557FF4FC591D49161118F
:100240000EC09FB7F8948C91E22FE0958E238C938B
:100250002881E223E8839FBFDF91CF9108958FB774
:10026000F894EC91E22BEC938FBFF6CF3FB7F89464
:100270008091BB039091BC03A091BD03B091BE03DC
:1002800026B5A89B05C02F3F19F00196A11DB11DF1
:100290003FBFBA2FA92F982F8827BC01CD01620F2D
:1002A000711D811D911D42E0660F771F881F991FE8
:1002B0004A95D1F708958F929F92AF92BF92CF92B5
:1002C000DF92EF92FF926B017C010E9436014B019D
:1002D0005C01C114D104E104F104B9F00E943601BB
:1002E000681979098A099B09683E7340810591055F
:1002F00080F321E0C21AD108E108F10888EE880EE7
:1003000083E0981EA11CB11CE4CFFF90EF90DF901A
:10031000CF90BF90AF909F908F9008952FB7F89493
:100320006091B7037091B8038091B9039091BA03BB
:100330002FBF0895FC01413029F481E0DB012C91AD
:100340009481291380E008950895AF92BF92CF92CF
:10035000DF92EF92FF920F931F93CF93DF936C0185
:100360007B018B01040F151FEB015E01AE18BF0866
:10037000C017D10759F06991D601ED91FC91019018
:10038000F081E02DC6010995892B79F7C501DF9130
:10039000CF911F910F91FF90EF90DF90CF90BF9082
:1003A000AF900895FC01538D448D252F30E0842FAC
:1003B00090E0821B930B541710F0CF96089501978D
:1003C0000895FC01918D828D981761F0A28DAE0F7A
:1003D000BF2FB11D5D968C91928D9F5F9F73928F01
:1003E00090E008958FEF9FEF0895FC01918D828D2D
:1003F000981731F0828DE80FF11D858D90E00895FA
:100400008FEF9FEF0895FC01918D228D892F90E051
:10041000805C9F4F821B91098F739927089588EB09
:1004200095E00E94030221E0892B09F420E0822F4D
:10043000089580E090E0892B29F00E940F0281113D
:100440000C9400000895FC01A48DA80FB92FB11DD4
:10045000A35ABF4F2C91848D90E001968F739927FA
:10046000848FA689B7892C93A089B1898C918370D8
:1004700080648C93938D848D981306C00288F389D1
:10048000E02D80818F7D80830895EF92FF920F93FE
:100490001F93CF93DF93EC0181E0888F9B8D8C8D30
:1004A00098131AC0E889F989808185FF15C09FB724
:1004B000F894EE89FF896083E889F98980818370E7
:1004C000806480839FBF81E090E0DF91CF911F9196
:1004D0000F91FF90EF900895F62E0B8D10E00F5FB7
:1004E0001F4F0F731127E02E8C8D8E110CC00FB68D
:1004F00007FCFACFE889F989808185FFF5CFCE0125
:100500000E942302F1CFEB8DEC0FFD2FF11DE35A7A
:10051000FF4FF0829FB7F8940B8FEA89FB898081A7
:100520008062CFCFCF93DF93EC01888D8823B9F021
:10053000AA89BB89E889F9898C9185FD03C08081EE
:1005400086FD0DC00FB607FCF7CF8C9185FFF2CF6B
:10055000808185FFEDCFCE010E942302E9CFDF919C
:10056000CF91089508958BEF089581E00895CF937A
:10057000DF93FC01228133812230310569F0EC01E7
:10058000678D858D0E94D70060E08C8D0E94D7001A
:1005900082E090E09B838A83DF91CF91089561E0B0
:1005A000FC01838D0C94D70060E0FC01838D0C94DA
:1005B000D7000F931F93CF93DF93EC01162F0FB744
:1005C000F894898D9A8DDC01ED91FC910088F18978
:1005D000E02D0995E881F98104ACF5ADE02DCE015F
:1005E0000995898D9A8DDC01ED91FC910190F08146
:1005F000E02D612F0995898D9A8DDC01ED91FC919B
:100600000190F081E02D60E00995182FE881F981D3
:1006100006ACF7ADE02DCE010995898D9A8DDC01F0
:10062000ED91FC910288F389E02D09950FBF812F90
:10063000DF91CF911F910F910895CF93DF93EC013C
:10064000898D9A8DDC01ED91FC910680F781E02D7A
:1006500009958B8D8F3F19F061E00E940501E881BB
:10066000F98106ACF7ADE02DCE01099564E670E0A6
:1006700080E090E00E945B0181E0DF91CF910895DE
:1006800008952FB7F89491E0662339F092E0613035
:1006900021F082E08093B30290E08091B202892B36
:1006A0008093B2028091B302811103C081E08093F4
:1006B000B3022FBF08958091B302882361F09FB7E2
:1006C000F8942091B3028091B102213019F48DBBCE
:1006D0009FBF08958FBF0895FC01308521858091CB
:1006E000B302882381F09FB7F8948091B3028130E0
:1006F00069F48DB38093B1024DB38091B2028095BD
:1007000084238DBB9FBF3CBD2DBD08959093B10246
:10071000FACF9FB7F8948091B002882319F08150E6
:100720008093B0028091B002811105C08CB58F7B9F
:100730008CBD1092B3029FBF08958CB58F778CBD8E
:1007400008958CB580688CBD08956EBD00000DB411
:1007500007FEFDCF8EB50895FC0173836283089573
:10076000FC01778366830895FC0175836483089593
:1007700008950895FC01848995890895FC01828972
:1007800093890895FC0180899189089580E00895F6
:10079000FC01738362830895FC0182819381089533
:1007A000FC01868597850895FC0181850895FC01EB
:1007B00080850895FC0187810895FC018681089554
:1007C0004095FC0125854223642B65870895FC0133
:1007D00064870895FC0163870895FC01628708958A
:1007E000FC0164830895FC01658308958F929F92B4
:1007F000AF92BF92CF92DF92EF92FF92CF93DF93AF
:10080000EC016B010E948E014B015C01F12CE12C8B
:100810000E948E01681979098A099B096C157D056A
:100820008E059F0580F48A819B81039789F381E07F
:10083000DF91CF91FF90EF90DF90CF90BF90AF907E
:100840009F908F90089580E0F3CFFC012281338147
:1008500023303105D1F381E008954F925F926F927A
:100860007F928F929F92AF92BF92CF92DF92EF9240
:10087000FF920F931F93CF93DF93EC016B018A01DB
:100880000E948E012B013C01F12CE12C4801B12C7E
:10089000A12C0E948E0164197509860997096C15AF
:1008A0007D058E059F0588F4E881F9810680F78132
:1008B000E02DCE010995811109C00115110549F3FB
:1008C000C501B4010E945B01E4CF80E0DF91CF91CC
:1008D0001F910F91FF90EF90DF90CF90BF90AF905E
:1008E0009F908F907F906F905F904F900895CF92E0
:1008F000DF92EF92FF920F931F93CF93DF93EC0160
:100900008B016B01F12CE12CE881F9810680F781E4
:10091000E02DCE010995811108C001151105A1F343
:10092000C701B6010E945B01EFCFDF91CF911F910C
:100930000F91FF90EF90DF90CF90089581E00895A0
:10094000DC018D919C91DC01ED91FC9100A4F1A55D
:10095000E02D0994DC018D919C91DC01ED91FC91DD
:100960000088F189E02D0994FF920F931F93CF9394
:10097000DF93EC018B01F42E88819981DC01ED91EC
:10098000FC91048CF58DE02D622F09958881998169
:10099000DC01ED91FC910284F385E02D4F2DB8012F
:1009A000DF91CF911F910F91FF900994FF920F93C8
:1009B0001F93CF93DF931F92CDB7DEB78C01F42E38
:1009C000DC018D919C91DC01ED91FC9100A0F1A1E5
:1009D000E02D0995F80180819181DC01ED91FC9178
:1009E00002A0F3A1E02D40E060E8099581E289834F
:1009F0002F2D41E0BE016F5F7F4FC8010E94B404FC
:100A0000C8010E94AA040F90DF91CF911F910F910E
:100A1000FF9008951F93CF93DF93EC01162F8881E9
:100A20009981DC01ED91FC91028CF38DE02D09950B
:100A300088819981DC01ED91FC91068CF78DE02D88
:100A4000612F09951A83DF91CF911F910895FC01C1
:100A500001900020E9F73197AF01481B590BBC0109
:100A600088EB95E00C94A5018F929F92AF92BF9274
:100A70000F931F93CF93DF93CDB7DEB7A1970FB638
:100A8000F894DEBF0FBECDBF19A2423008F44AE091
:100A90008E010F5D1F4F842E912CB12CA12CA5012E
:100AA00094010E948115E62FB901CA01EA30F4F4DD
:100AB000E05DD801EE938D01232B242B252B79F7B4
:100AC00090E080E0109719F0CD010E942705A196D3
:100AD0000FB6F894DEBF0FBECDBFDF91CF911F914F
:100AE0000F91BF90AF909F908F900895E95CE1CFF8
:100AF000CF93DF930E942705EC018CE991E00E94DF
:100B000027058C0F9D1FDF91CF910895DF92EF9203
:100B1000FF920F931F93CF93DF93EC01162F042FB7
:100B2000D22EE62EF12C8A819B81DC01ED91FC9185
:100B30000484F585E02D099597012B5F3F4F8217BF
:100B4000130650F1D092BA040093B9041092BB047A
:100B5000FE01E35FFE4F808191E0980F90838093C8
:100B6000BC041092BD04A7016FEB73E08EEB94E020
:100B70000E940A1745E0410FE881F9810280F38164
:100B8000E02D69EB74E0CE01DF91CF911F910F91C1
:100B9000FF90EF90DF90099481E0DF91CF911F915A
:100BA0000F91FF90EF90DF900895CF93DF93FC01BA
:100BB000E05FFE4F30E020E07081A9014F5F5F4FA2
:100BC000761321C0EC01BA01660F771F640F751F01
:100BD000CB01835F9E4F49E050E0421B530B9A01CB
:100BE000220F331F420F531F605F7E4F6C0F7D1F1C
:100BF0008C0F9D1F0E940A17C35DDE4F188281E093
:100C0000DF91CF9108959A0133964A305105A1F6AC
:100C100080E0F6CFCF93DF93EC01C05FDE4FDE01C3
:100C2000F0E0E0E02C91261313C09F01220F331F48
:100C30002E0F3F1F820F931FFC01EF5EFE4F40837C
:100C40008E5E9E4F22E0FC012083DF91CF910895BC
:100C500031961396EA30F10529F7DC01AE5EBE4FFE
:100C6000F0E0E0E02C9121110DC09F01220F331F15
:100C70002E0F3F1F820F931FFC01E05FFE4F60832A
:100C80003196DDCF31961396EA30F10559F7FC0124
:100C9000ED5EFE4F2BE1DE0101900D922A95E1F70A
:100CA000FC01E35DFE4F1082825D9E4F22E03A819F
:100CB000311103C0688349832A832396C817D90753
:100CC000B1F7C3CFCF92DF92EF92FF920F931F93B2
:100CD000CF93DF93EB01423008F445C02D812230E1
:100CE000A9F5F42E8C016C0182E0C80ED11CC6015E
:100CF0000E94A004482F6F81C8010E940A0688EF55
:100D0000E82EEF0CFE01389649EF4F0DFF24F394C7
:100D1000F41641F0919121E02F0DD80114968C9199
:100D2000981312C06F2D70E0685F7F4FC60FD71FFA
:100D3000FE14C8F4C6010E94A004F3946991482FE0
:100D4000C8010E940A06F4CFF22EE2CF233059F4F4
:100D50006E81DF91CF911F910F91FF90EF90DF9007
:100D6000CF900C94D505DF91CF911F910F91FF90FB
:100D7000EF90DF90CF9008952F923F924F925F9225
:100D80006F927F928F929F92AF92BF92CF92DF929B
:100D9000EF92FF920F931F93CF93DF9300D000D079
:100DA0001F92CDB7DEB75C012B014A013C832B8338
:100DB00036018FEF8983D50112968D919C91DC01CC
:100DC000ED91FC910680F781E02D0995811102C01B
:100DD000312C96C0F50182819381DC01ED91FC916B
:100DE0000084F185E02DAE014F5F5F4F69EB74E049
:100DF0000995382E882361F36501B2E0CB0ED11C32
:100E0000C6010E94A0048A83F50182819381DC01DE
:100E1000ED91FC9106A0F7A1E02D09958D83F501D8
:100E200082819381DC01ED91FC9102A4F3A5E02D78
:100E30000995282EF50182819381DC01ED91FC91C9
:100E400004A4F5A5E02D099587FDC2CFF5018481A5
:100E5000FD818F1305C04A81622DC6010E94D60410
:100E6000F5018A81E80FF11D8585821509F4B0CF5F
:100E70002586D501ED91FC910190F081E02D49810D
:100E800069EB74E0C50109958091B904F50194817D
:100E9000891719F08F3F09F04CC08114910421F09B
:100EA0008091BA04D4018C93EB81FC81309719F0C6
:100EB0008091B90480830115110521F08091BC0453
:100EC000D8018C93E114F10421F08091BD04F70165
:100ED00080836114710421F08091BB04D3018C9351
:100EE00089818550F2019081891708F48083D201AD
:100EF0004C9150E06EEB74E08FEB93E00E940A1788
:100F0000832D0F900F900F900F900F90DF91CF9146
:100F10001F910F91FF90EF90DF90CF90BF90AF9017
:100F20009F908F907F906F905F904F903F902F9009
:100F300008958091BB0491E0980F9093BB04E25F09
:100F4000FE4F9081891708F043CF31968081882326
:100F500009F43ECFD501ED91FC910280F381E02DA3
:100F6000498169EB74E0C501099532CF4F925F92D8
:100F70006F927F929F92AF92BF92CF92DF92EF9249
:100F8000FF920F931F93CF93DF931F92CDB7DEB7DE
:100F90005C01962E81E08093BF038093C003609331
:100FA000C103F50124814FEF63E0C5010E9486056E
:100FB000882399F010E0812F0F90DF91CF911F913E
:100FC0000F91FF90EF90DF90CF90BF90AF909F90E8
:100FD0007F906F905F904F9008958AEF89830E9471
:100FE0008E012B013C01F0EA4F0EFFE05F1E611CF9
:100FF000711C0E948E01A3019201261B370B480B26
:10100000590BCA01B901161617061806190694F6E7
:10101000F501A281B381ED91FC9111970488F589C6
:10102000E02D50E040E0CD010995882311F3D12C4B
:10103000C12CF12CE12C10E000E030E020E050E089
:1010400040E0BE016F5F7F4FC5010E94BC06182FB4
:10105000882379F28981823060F28091BF038230E7
:1010600041F6C50102960E94A004482F692DC501D2
:101070000E940A06A0CF0F931F93CF93DF936A3F7E
:1010800090F5D42FC62F8C014F3FB9F0E5E6F7E07D
:1010900083E897E02081D21303C0228121110DC083
:1010A00033968E179F07B1F76D2F85E596E00E9466
:1010B000B607811102C082E017C01092BF034C2F07
:1010C00050E0B80180EC93E00E940A1761E06C0FD9
:1010D000209159064D2F85E596E0DF91CF911F9124
:1010E0000F910C94860581E0DF91CF911F910F91B4
:1010F0000895CF92DF92EF92FF920F931F93CF93B9
:10110000DF93EC017B018A01E881F9810680F78198
:10111000E02D0995D82E882329F1E114F104D1F0AE
:1011200001151105B9F0CFB6F8948F8D8350990B46
:10113000F8012081281719061CF08F8D84508083B8
:10114000F801408150E0BE016C5D7F4FC7010E94F5
:101150000A17CFBE8FB7F894FE01E15EFE4F1082F2
:101160001F8E8FBF8D2DDF91CF911F910F91FF901B
:10117000EF90DF90CF900895FF920F931F93CF933E
:10118000DF93EC01162FF42E0FB7F894898D9A8D0A
:10119000DC01ED91FC910088F189E02D0995E88151
:1011A000F98104ACF5ADE02DCE010995898D9A8DBC
:1011B000612F6068DC01ED91FC910190F081E02DE0
:1011C0000995182F898D9A8DDC01ED91FC91019084
:1011D000F081E02D6F2D0995E881F98106ACF7AD1E
:1011E000E02DCE010995898D9A8DDC01ED91FC9160
:1011F0000288F389E02D09950FBF812FDF91CF91F0
:101200001F910F91FF900895CF93DF93EC018A8196
:101210009B810597C9F0E881F981E05CFF4F01905F
:10122000F081E02D65E070E0CE01099547E061E0D6
:10123000CE010E94BC0840E860E4CE010E94BC08D8
:1012400085E090E09B838A838A819B810597E1F307
:101250008E89DF91CF910895CF93DF93FC01228196
:10126000338121303105A9F0EC010190F081E02DAE
:10127000E05CFF4F0190F081E02D61E070E00995A6
:1012800040E061E0CE010E94BC0881E090E09B83D9
:101290008A8381E0DF91CF910895CF93DF93FC01A2
:1012A0002281338122303105A9F0EC010190F081D7
:1012B000E02DE05CFF4F0190F081E02D62E070E0F6
:1012C000099541E061E0CE010E94BC0882E090E017
:1012D0009B838A83DF91CF910895BF92CF92DF9253
:1012E000EF92FF920F931F93CF93DF934C3F60F0E9
:1012F00000E0802FDF91CF911F910F91FF90EF9031
:10130000DF90CF90BF900895142F6B01EC01E8811E
:10131000F9810088F189E02D0995CE010E944D09DF
:10132000E881F9810688F789E02DCE010995082F1B
:101330008823F1F240E06DE0CE010E94BC084A85AE
:1013400060E0CE010E94BC084B8560E0CE010E94A7
:10135000BC084C8560E0CE010E94BC084D8560E071
:10136000CE010E94BC08BFB6F894898D9A8DDC012D
:10137000ED91FC910088F189E02D0995E881F981D2
:1013800004ACF5ADE02DCE010995898D9A8DDC0177
:10139000ED91FC910190F081E02D60E809957601D6
:1013A000D12EDA94BFEFDB1669F0898D9A8DF701A3
:1013B00061917F01DC01ED91FC910190F081E02DC4
:1013C0000995EFCFE881F98106ACF7ADE02DCE01AC
:1013D0000995898D9A8DDC01ED91FC910288F38944
:1013E000E02D0995BFBE44E0410F62E2CE010E94AC
:1013F000BC088A819B81039709F47BCFE881F9813E
:10140000E05CFF4F0190F081E02D63E070E0CE01E1
:10141000099543E061E0CE010E94BC0840E460E42D
:10142000CE010E94BC0883E090E09B838A8361CF59
:10143000CF93DF93FC01228133812330310529F1E1
:10144000EC01828193810497D1F00190F081E02D2D
:10145000E05CFF4F0190F081E02D64E070E0CE0190
:10146000099545E061E0CE010E94BC0840E060E4DF
:10147000CE010E94BC0884E090E09B838A83C15E19
:10148000DE4F8881DF91CF91089580E0FBCFDF921E
:10149000EF92FF920F931F93CF93DF93EC0162E1E2
:1014A0000E94D902182F6CE1CE010E94D902082FA8
:1014B0004FEF62E1CE010E94BC088A819B810497B4
:1014C00059F4812F807AE9F4FE01EE5DFE4F8081B0
:1014D000882311F006FF15C08A819B81049711F4BF
:1014E00016FD2DC08A819B81039711F413FDDCC08A
:1014F0008A819B81059791F412FF10C011701E8B99
:10150000BEC0888999890196998B888B8FB7F8948A
:10151000FE01E15EFE4F10821F8E8FBF4FEF62E132
:10152000CE010E94BC084FEF62E1CE01DF91CF9166
:101530001F910F91FF90EF90DF900C94BC0863E136
:10154000CE010E94D902082F60E1CE010E94D9028B
:10155000482F6DE0CE010E94BC08DFB6F894898D5B
:101560009A8DDC01ED91FC910088F189E02D0995BF
:10157000E881F98104ACF5ADE02DCE010995898DA6
:101580009A8DDC01ED91FC910190F081E02D60E0FD
:1015900009957E01B0E2EB0EF11C102F115070F096
:1015A000898D9A8DDC01ED91FC910190F081E02D07
:1015B00060E00995F70181937F01F0CFE881F9811F
:1015C00006ACF7ADE02DCE010995898D9A8DDC0131
:1015D000ED91FC910288F389E02D0995DFBE0F8F14
:1015E00069E1CE010E94D9028E010F5D1E4F87FD79
:1015F0008D5F85958595F80180836AE1CE010E9413
:10160000D90290E09F878E87D8012C918E859F8587
:1016100027FF39C0820F911D27FD9A959F878E87DE
:10162000FE01E05EFE4F80818823C9F18E859F8593
:101630008D5991099F878E878F8DFE01E15EFE4F48
:101640008430C8F088A18E8389A18F838AA188877E
:101650008BA189878D81811107C09E818C8198170C
:1016600019F08E818F3F39F48A899B8901969B8B73
:101670008A8B81E080838081882309F44FCFCE015B
:101680000E944D094BCF24E0880F991F2A95E1F75E
:101690006FE070E00E94B2157F876E87C1CF8E85A4
:1016A0009F85845A9109C6CF8C899D8901969D8B0F
:1016B0008C8BE5CF8091B9029091BA02009711F01E
:1016C0000C94470A08958091B7029091B802009750
:1016D00011F00C94470A08958091B5029091B602DA
:1016E000009711F00C94470A08950E9405170C9476
:1016F0007C160F931F93CF93DF9300D01F92CDB72B
:10170000DEB78C01CB01660F771F680F791F6E580B
:101710007F4F43E050E0CE0101960E943E15498183
:101720006DE1C8010E94BC084A816EE1C8010E94B7
:10173000BC084B8166E2C8010E94BC0881E00F90A2
:101740000F900F90DF91CF911F910F9108950F93FC
:101750001F93CF93DF93EC010E941D03082F81118B
:1017600007C000E0802FDF91CF911F910F91089566
:101770008D8D8F3F09F489C0823009F484C011E057
:10178000833079F7898D9A8DDC01ED91FC91048885
:10179000F589E02D612F099540E861E0CE010E94B6
:1017A000BC086AE070E080E090E00E945B0161E0CC
:1017B000CE010E94D9028038A1F68D8D8F3F41F174
:1017C00060E00E9405018E8D8F3F49F48091B40244
:1017D000843038F691E0980F9093B4028E8F8E8DFE
:1017E000E82FF0E0EE0FFF1FEB54FD4FD183C083D5
:1017F0006CE67BE0882349F063E67BE0813029F0EA
:10180000823009F0AECF6AE57BE0812F0E94940020
:1018100040E06EE0CE010E94BC0840E06FE0CE01E7
:101820000E94BC08CE010E944D0970E060E0CE012C
:101830000E94790B40E060E2CE010E94BC0848E0C3
:1018400061E2CE010E94BC084CE666E0CE010E9437
:10185000BC0840E867E0CE010E94BC0840E068E0B8
:10186000CE010E94BC08FE01E05EFE4F10821C8E7D
:1018700044E06DE4CE010E94BC084BE869E0CE0173
:101880000E94BC086FCF10E07DCF1FEF85CF2F9255
:101890003F924F925F926F927F928F929F92AF9200
:1018A000BF92CF92DF92EF92FF920F931F93CF934D
:1018B000DF9300D000D01F92CDB7DEB7DB011C91C3
:1018C0001F3F39F1DC01A05FBE4FF0E0E0E02C915A
:1018D000121313C012962C911297222371F09F01BC
:1018E000220F331F2E0F3F1FF901E05FFE4FE80F5D
:1018F000F91FEF2B41F482E053C031961396EA3082
:10190000F10529F7F8CF280F391FF901EF5EFE4FD7
:1019100010814B837A8369839D838C831C01B2E0A1
:101920002B0E311CFC0101850F5F0187D12C412C4E
:10193000512C32015394FF24F394FD0CAC81BD81F2
:101940001C968C911C978D1508F4E5C012968D910C
:101950009C91DC01ED91FC9100A0F1A1E02D602FA4
:101960000995B1E040EC60E0FB1611F040E860E45E
:10197000EC81FD8182819381DC01ED91FC9102A0DB
:10198000F3A1E02D0995212F4B8169817A81C10155
:101990000E94B404C1010E94AA041F3FC9F480E060
:1019A0000F900F900F900F900F90DF91CF911F919C
:1019B0000F91FF90EF90DF90CF90BF90AF909F90EE
:1019C0008F907F906F905F904F903F902F900895F1
:1019D000B1E0BF1568F4EC81FD8185819681A78116
:1019E000B0850196A11DB11D85839683A783B0871D
:1019F0000E948E014B015C01AC81BD811A96CD9095
:101A0000DC900E94C814A30192010E944F159B0113
:101A1000AC01D6010E946E15A30192010E944F15E0
:101A20002C0D3D1D820E931EA11CB11CDF2C0E94AB
:101A30008E01A5019401261B370B480B590BCA01D7
:101A4000B90116161706180619060CF074CFEC81AA
:101A5000FD81A281B381ED91FC9111970488F589F4
:101A6000E02D50E040E0CD010995882301F3AC81E1
:101A7000BD8112968D919C91DC01ED91FC910084C9
:101A8000F185E02D50E040E070E060E009958823AA
:101A900071F2C1010E94A004E82EEC81FD818281D7
:101AA0009381DC01ED91FC9106A0F7A1E02D099551
:101AB000C82EEC81FD8182819381DC01ED91FC9146
:101AC00002A4F3A5E02D0995F82EEC81FD81828119
:101AD0009381DC01ED91FC9104A4F5A5E02D09951D
:101AE0001E110AC0EC81FD8194819C1105C087FF05
:101AF00003C00F1509F453CF87FD99CFEC81FD8109
:101B0000EE0DF11D85858F1192CF4E2D6F2DC101E8
:101B10000E94D6048CCF85E043CFEF92FF920F93C3
:101B20001F93CF93DF93EC018B01F42E02960E945A
:101B3000A004E82E4F2DB801CE010E94470CF82ECC
:101B400082E0F81619F0E5E0FE1222C0F80160818B
:101B5000CE010E94D505F80191818C819817C1F0C2
:101B600083E08093BF0380818093C0034E2D618109
:101B7000CE010E940A062C81F801418162E0CE016B
:101B8000DF91CF911F910F91FF90EF900C948605FC
:101B90008F2DDF91CF911F910F91FF90EF900895BE
:101BA0008F929F92AF92BF92CF92DF92EF92FF926D
:101BB000CF93DF93FC012789308D232BB9F1EC0102
:101BC0000E948E014B015C0189E0C82ED12CE12CD2
:101BD000F12CE881F981008CF18DE02DCE01099581
:101BE000882321F10E948E01AB01BC0148195909DB
:101BF0006A097B098F89988DB0E0A0E0841795076A
:101C0000A607B707F8F00E94C814A70196010E9422
:101C10004F159B01AC012F5F3F4F4F4F5F4FA4E625
:101C2000B0E00E946E150E945B01D3CF81E0DF918E
:101C3000CF91FF90EF90DF90CF90BF90AF909F90AB
:101C40008F90089580E0F3CF0F931F93CF93FC0103
:101C50008281938140E054E264EF70E0843091052A
:101C6000C1F040E052E16AE770E08330910589F00D
:101C700040E059E06DE370E08230910551F040E4BE
:101C800052E46FE070E0019721F440E854E86EE11F
:101C900070E0A481B58186819781009709F466C0C0
:101CA0008130910509F45EC08230910509F45CC071
:101CB000039709F05BC08CE000E012E12AE730E016
:101CC00090E0401751076207730740F43695279557
:101CD000179507959F5F9630A1F797E021E0292798
:101CE00030E5119709F430E72695282B232B208720
:101CF000909591709187CFB7F8948091B00281113F
:101D000027C0EFE9F0E08491E3EBF0E09491E82F55
:101D1000F0E0EE0FFF1FEF57FF4FA591B491EC914C
:101D2000E92321F461E08AE00E94D70061E08AE0C3
:101D30000E9405018CB580618CBD8CB580648CBD22
:101D400061E08DE00E94050161E08BE00E940501E9
:101D50008091B0028F5F8093B002CFBFCF911F916F
:101D60000F91089584E0A8CF88E0A6CF80E0A4CFAB
:101D70001F920F920FB60F9211242F933F938F93C0
:101D80009F93AF93BF938091B7039091B803A091B5
:101D9000B903B091BA033091B60323E0230F2D3776
:101DA00058F50196A11DB11D2093B6038093B7038A
:101DB0009093B803A093B903B093BA038091BB0387
:101DC0009091BC03A091BD03B091BE030196A11DEB
:101DD000B11D8093BB039093BC03A093BD03B0934C
:101DE000BE03BF91AF919F918F913F912F910F9023
:101DF0000FBE0F901F90189526E8230F0296A11D85
:101E0000B11DD2CF1F920F920FB60F9211242F93B4
:101E10003F934F935F936F937F938F939F93AF9372
:101E2000BF93EF93FF93E0910201F09103010995B5
:101E3000FF91EF91BF91AF919F918F917F916F91A2
:101E40005F914F913F912F910F900FBE0F901F9078
:101E500018951F920F920FB60F9211242F933F9354
:101E60004F935F936F937F938F939F93AF93BF93A2
:101E7000EF93FF93E0910001F09101010995FF912B
:101E8000EF91BF91AF919F918F917F916F915F91F2
:101E90004F913F912F910F900FBE0F901F9018956B
:101EA0001F920F920FB60F9211242F933F934F93CF
:101EB0005F936F937F938F939F93AF93BF93EF93B2
:101EC000FF9388EB95E00E942302FF91EF91BF9171
:101ED000AF919F918F917F916F915F914F913F91C2
:101EE0002F910F900FBE0F901F9018951F920F9279
:101EF0000FB60F9211242F938F939F93EF93FF931D
:101F0000E091C805F091C9058081E091CE05F0917E
:101F1000CF0582FD1BC090818091D1058F5F8F73AB
:101F20002091D205821741F0E091D105F0E0E8540C
:101F3000FA4F958F8093D105FF91EF919F918F91EB
:101F40002F910F900FBE0F901F9018958081F4CFA6
:101F50001F920F920FB60F9211242F933F934F931E
:101F60005F936F937F938F939F93AF93BF93CF9321
:101F7000DF93EF93FF938091020090910300049709
:101F800009F0DEC020911B0030E0F901E354FF4F5F
:101F90008491F901E755FF4FD491F901EB56FF4FBA
:101FA000C491CC2379F081110E94AE00EC2FF0E0B7
:101FB000EE0FFF1FE859FF4FA591B491EC91ED236F
:101FC00081E009F480E0817020911E00982F922713
:101FD000821719F083B18F5F83B982B18917F1F14C
:101FE00084B12DE1803508F42BE084B1820F84B9EF
:101FF00092B984B1803A08F46EC086B197B19695D3
:10200000879597B986B983B1853028F086B197B1A5
:10201000986097B986B984B1805A84B913B885B1EC
:10202000882309F482C088B18F5F88B98C3008F4A6
:1020300052C086B197B1982F9F73892F8695869548
:10204000887028E0280F281769F0E82FF0E0E25F99
:10205000FE4F3081931739F08F5FF5CF84B18C5EDE
:1020600084B9C7CF80E090E1899F9001112486B1A7
:1020700097B136E0969587953A95E1F7482F959573
:10208000879595958795887098E0980F981749F0EF
:10209000E82FF0E0E25FFE4F5081451719F08F5FA7
:1020A000F5CF80E0822B90916D00911127C0809335
:1020B0006C0090916C00973020F090916C009434FB
:1020C000E8F015B88091100090911100019690935E
:1020D000110080931000FF91EF91DF91CF91BF919C
:1020E000AF919F918F917F916F915F914F913F91B0
:1020F0002F910F900FBE0F901F901895E0916D00DB
:1021000091E09E0F90936D00F0E081A790916D009B
:1021100080916C00981738F015B881E080B990E094
:1021200080E00E94B70218B8D6CF86B197B1883345
:102130009B4089F681E085B918B810926D00CBCF2D
:102140008091020090910300039729F6809170001E
:1021500091E0980F90937000811113C0E0916E0090
:102160008091FF00E817A8F090E080E00E94B7029D
:102170008091140090911500019690931500809322
:10218000140080917000883008F4A5CF1092700080
:10219000A2CFF0E0EF58FF4F608170E080916F00B8
:1021A00091E0980F90936F0002C0759567958A959E
:1021B000E2F7617080911C000E94D70080916F004F
:1021C0008630F8F210926F0080916E008F5F8093DE
:1021D0006E00D7CF1092BB051092BA0588EE93E03F
:1021E000A0E0B0E08093BC059093BD05A093BE0530
:1021F000B093BF0582E291E09093B9058093B80552
:1022000085EC90E09093C5058093C40584EC90E044
:102210009093C7058093C60580EC90E09093C90524
:102220008093C80581EC90E09093CB058093CA051C
:1022300082EC90E09093CD058093CC0586EC90E005
:102240009093CF058093CE051092D1051092D205C0
:102250001092D3051092D40510928607109285072C
:10226000109288071092870710928A0710928907A8
:1022700084E391E0909384078093830780E58093C3
:102280008B0710928C071092900710928F078FEF98
:1022900080939107809397078093980710929907EE
:1022A00010929A0710929E0710929D071092A00715
:1022B00010929F071092A2071092A1071092A507F3
:1022C0001092A40723E837E03093A7072093A607CE
:1022D0009AE09093A8072AE531E030938E07209387
:1022E0008D071092AC081092B00892E09093AA0764
:1022F0008093AB0781E08093AF081092A9072DE887
:1023000037E03093580620935706109259061092E2
:102310005A0610925B0610925C0610925D061092AF
:102320005E0628EC30E03093600620935F0693E071
:1023300090936106E2E6F6E020E031E0DF01A901DA
:102340001D9241505040E1F79EE1909363078093C6
:102350006407E7E6F7E085E897E0108233968E178A
:102360009F07D9F78EE491E0909356068093550627
:102370000895CF93DF93CDB7DEB7CF5FD1090FB606
:10238000F894DEBF0FBECDBF789484B5826084BD63
:1023900084B5816084BD85B5826085BD85B5816069
:1023A00085BD80916E00816080936E0010928100E7
:1023B00080918100826080938100809181008160A2
:1023C0008093810080918000816080938000809163
:1023D000B10084608093B1008091B00081608093EF
:1023E000B00080917A00846080937A0080917A00B6
:1023F000826080937A0080917A00816080937A0075
:1024000080917A00806880937A001092C10080E405
:1024100080937C0080917A00806480937A00809120
:102420007A0086FDFCCF6091780070917900072ECC
:10243000000C880B990B611571058105910511F050
:102440000E941715E091C805F091C90582E08083CC
:10245000E091C405F091C5051082E091C605F091A8
:10246000C7058FEC80831092D005E091CC05F091E8
:10247000CD0586E08083E091CA05F091CB0580818F
:1024800080618083E091CA05F091CB0580818860EE
:102490008083E091CA05F091CB05808180688083BC
:1024A000E091CA05F091CB0580818F7D80838FE913
:1024B00091E00E94780561E089E00E94050161E0F9
:1024C00089E00E94D70068EC70E080E090E00E9414
:1024D0005B0160E089E00E94D70068EC70E080E07A
:1024E00090E00E945B0161E089E00E94D70062E316
:1024F00070E080E090E00E945B018091570690912F
:102500005806DC01ED91FC910480F581E02D0995E0
:10251000882309F4ECC16091590687E596E00E9492
:102520000A058EE18093630764E070E08DE897E030
:102530000E94790B44EE66E08DE897E00E94BC08AB
:1025400040EC67E08DE897E00E94BC0840E068E05E
:102550008DE897E00E94BC0881E08093AD0888EB8D
:102560009BE09093600680935F0685E08093610610
:102570008DEB91E00E94780511E0412F65E083EE3C
:1025800091E00E943B08823009F092C088EE91E011
:102590000E942705612F70E090E080E04AE00E94F1
:1025A00034058BEB91E00E947805612F87E596E07A
:1025B0000E940A0583E192E00E9478053BEBA32E7E
:1025C00032E0B32E29EF922E88EB95E00E940302B1
:1025D000181619060CF090C088EB95E00E94E101F6
:1025E0002091B4033091B5038A3009F076C02554A8
:1025F0003D4FF90110828BEB92E00E9420158C0177
:10260000D5010D900020E9F7AD014C5B5240EBEB9A
:10261000F2E070E060E0641775070CF04DC0819146
:102620009B012F5F3F4F8B3309F044C06F5F7F4F9B
:10263000641775070CF443C01092BB02C8010197E0
:102640008F3F910508F046C084E392E00E94270581
:102650008BEB92E00E94270585E492E00E9427051B
:10266000B801110F880B990B4AE00E9434058CE9E0
:1026700091E00E942705F50101900020E9F7BF01D4
:102680006C5B72406F5F402F8BEB92E00E943B08C7
:10269000882321F081E592E00E9478051092B5032D
:1026A0001092B403D501E92D1D92EA95E9F78CCF7C
:1026B0001F5F63CFB901AFCF70E060E0B7CF461BBB
:1026C000570B4F5F5F4F65547D4F8BEB92E00E943D
:1026D0001317B4CF81E792E0DFCF283F310508F030
:1026E00073CFF901E554FD4F80832F5F3F4F309347
:1026F000B5032093B40368CF809157069091580694
:10270000DC01ED91FC910680F781E02D099588238D
:1027100009F4BCC08AEFC150DF4F8883CF5FD0403F
:10272000FE01E650FF4F6F01CE0185509F4F7C01A7
:102730008E0104501F4F9E0123503F4FAE01425067
:102740005F4FBE0161507F4F85E596E00E94BC0659
:10275000882309F49BC0C150DF4F4881CF5FD04030
:10276000C350DF4F0881CD5FD040442309F48EC0B1
:102770008091BF03811128C0C250DF4F1881CE5F06
:10278000D0404150493F08F049EF50E060EC73E021
:10279000CE0101960E940A17809159068013A4C0A9
:1027A0008AE892E00E942705612F70E090E080E0C7
:1027B0004AE00E94340580E992E00E942705CE019C
:1027C00001960E94780562C00F3F09F05FC0423059
:1027D00008F45CC0813009F059C080915906C2509C
:1027E000DF4F9881CE5FD040891709F44FC01DEFAD
:1027F000140F92ECE92E93E0F92EF70100E0011797
:1028000030F49191891709F441C00F5FF8CF87E543
:1028100096E00E94A004482FC250DF4F6881CE5F2F
:10282000D04085E596E00E940A06809164078823DF
:1028300091F000E0011770F487E596E00E94A00493
:10284000D7016D917D01482F85E596E00E940A062B
:102850000F5FF0CF012F8091C003813021F52091CF
:10286000C1038091590628131EC082E08093BF03E4
:10287000C250DF4F4881CE5FD040C150DF4F6881EA
:10288000CF5FD04085E596E00E94860580E090E02D
:10289000892B09F499CE0E940F02882309F492CE65
:1028A0000E9400008FCE80916307081778F780910F
:1028B0006407882359F3E12FF0E0E154FC4F809145
:1028C00059068383C150DF4F6881CF5FD0406F5F6F
:1028D000C150DF4F6883CF5FD040C250DF4F2881A7
:1028E000CE5FD0404FEFCECF0F3F81F659CF82E978
:1028F00092E00E947805FFCF8F929F92AF92BF9295
:10290000CF92DF92EF92FF92CF93DF93EC01688139
:1029100079818A819B81611571058105910521F479
:1029200064E279ED8BE597E02DE133EF41E050E093
:102930000E944F1549015A019B01AC01A7EAB1E47D
:102940000E946E156B017C01ACEEB4EFA501940101
:102950000E947C15C60ED71EE81EF91EF7FE06C0A3
:1029600081E0C81AD108E10880E8F80AC882D98253
:10297000EA82FB82C701B6019F77DF91CF91FF907A
:10298000EF90DF90CF90BF90AF909F908F90089581
:102990008F929F92AF92BF92CF92DF92EF92FF926F
:1029A00060910401709105018091060190910701E9
:1029B000611571058105910521F464E279ED8BE5DE
:1029C00097E02DE133EF41E050E00E944F154901BF
:1029D0005A019B01AC01A7EAB1E40E946E156B019C
:1029E0007C01ACEEB4EFA50194010E947C15C60EEB
:1029F000D71EE81EF91EF7FE06C081E0C81AD108EE
:102A0000E10880E8F80AC0920401D0920501E09242
:102A10000601F0920701C701B6019F77FF90EF9082
:102A2000DF90CF90BF90AF909F908F90089560936C
:102A300004017093050180930601909307010895A6
:102A4000FC0188279927E89421912032E9F3293065
:102A500010F02E30C8F32B3241F02D3239F4689447
:102A600004C00E944715820F911D219120532A30E6
:102A7000C0F31EF4909581959F4F0895FB01DC01F2
:102A800002C005900D9241505040D8F708957AE069
:102A9000979F902D879F802D910D11240895052ECD
:102AA00097FB1EF400940E94661557FD07D00E9404
:102AB000811507FC03D04EF40C9466155095409593
:102AC000309521953F4F4F4F5F4F089590958095DA
:102AD000709561957F4F8F4F9F4F08950E94A3156A
:102AE000A59F900DB49F900DA49F800D911D112462
:102AF0000895B7FF0C946E150E946E15821B930B00
:102B00000895A1E21A2EAA1BBB1BFD010DC0AA1F2E
:102B1000BB1FEE1FFF1FA217B307E407F50720F046
:102B2000A21BB30BE40BF50B661F771F881F991FC1
:102B30001A9469F760957095809590959B01AC010A
:102B4000BD01CF010895A29FB001B39FC001A39F13
:102B5000700D811D1124911DB29F700D811D1124D6
:102B6000911D089597FB072E16F4009407D077FD6A
:102B700009D00E94C61507FC05D03EF490958195BA
:102B80009F4F0895709561957F4F0895AA1BBB1BB9
:102B900051E107C0AA1FBB1FA617B70710F0A61B5D
:102BA000B70B881F991F5A95A9F780959095BC017E
:102BB000CD010895EE0FFF1F0590F491E02D0994CB
:102BC0000F931F93CF93DF938230910510F482E02F
:102BD00090E0E091B308F091B40830E020E0B0E07C
:102BE000A0E0309799F42115310509F44AC0281B5B
:102BF000390B24303105D8F58A819B816115710527
:102C000089F1FB0193838283FE0111C040815181D0
:102C10000281138148175907E0F04817590799F4C2
:102C2000109761F012960C93129713961C9332969C
:102C3000CF01DF91CF911F910F9108950093B308B9
:102C40001093B408F4CF2115310551F04217530702
:102C500038F0A901DB019A01BD01DF01F801C1CF04
:102C6000EF01F9CF9093B4088093B308CDCFFE0164
:102C7000E20FF31F81939193225031093983288306
:102C8000D7CF2091B1083091B208232B41F4209185
:102C90000A0130910B013093B2082093B1082091C2
:102CA0000801309109012115310541F42DB73EB7D6
:102CB00040910C0150910D01241B350BE091B1089E
:102CC000F091B208E217F307A0F42E1B3F0B281770
:102CD000390778F0AC014E5F5F4F2417350748F095
:102CE0004E0F5F1F5093B2084093B10881939193A8
:102CF0009FCFF0E0E0E09CCFCF93DF930097E9F027
:102D0000FC01329713821282A091B308B091B408EB
:102D1000ED0130E020E01097A1F420813181820F95
:102D2000931F2091B1083091B2082817390709F094
:102D300061C0F093B208E093B108DF91CF9108959C
:102D4000EA01CE17DF07E8F54A815B819E01411554
:102D50005105B1F7E901FB83EA8349915991C40F09
:102D6000D51FEC17FD0761F4808191810296840FD5
:102D7000951FE90199838883828193819B838A834C
:102D8000F0E0E0E012968D919C9113970097B9F5D1
:102D90002D913C911197CD010296820F931F2091A6
:102DA000B1083091B2082817390739F6309751F534
:102DB0001092B4081092B308B093B208A093B1086F
:102DC000BCCFD383C28340815181840F951FC81724
:102DD000D90761F44E5F5F4F88819981480F591F71
:102DE000518340838A819B8193838283211531059E
:102DF00009F0B0CFF093B408E093B3089ECFFD0183
:102E0000DC01C0CF13821282D7CF81E090E0F8942A
:102E10000C942517FB01DC0102C001900D9241507A
:102E20005040D8F708956817790768F4FB01DC0172
:102E3000E40FF51FA40FB51F02C002900E9241507F
:0E2E40005040D8F708950C940A17F894FFCF6D
:102E4E00A401A401010000000000B50880000D0ED1
:102E5E00131516191A1C232526292A2C3234000084
:102E6E0000004502A501D20192020302E101F50123
:102E7E0000000000A503A1039D03240E8903B403E3
:102E8E00B003AC036C035B03410300000000620659
:102E9E008D0DB6079A0100000000B202770BA70B4A
:102EAE00180A79086D09B30277042504F6032D0478
:102EBE00D00D0409F003ED03EA03E703E003F30387
:102ECE00DD03DA03D703D403D003CC03C8032C09E4
:102EDE00C203BE03BA03D402CF02B5020D0A005BD1
:102EEE00494E464F5D20536C697070794D6573681D
:102EFE00205374617274696E672E2E2E005B494EDC
:102F0E00464F5D204C6F6F6B696E6720666F722047
:102F1E00617661696C61626C65206164647265736F
:102F2E00732E0050494E47005B494E464F5D20467A
:102F3E006F756E6420617661696C61626C6520618B
:102F4E006464726573732C2041737369676E656474
:102F5E003A20005B494E464F5D204D657368206EEA
:102F6E006574776F726B20696E697469616C697ACA
:102F7E0065642E005B494E464F5D2053656E646955
:102F8E006E672022002220746F206E6F64652023EE
:102F9E00005B4552524F525D204D657373616765FC
:102FAE00206661696C656420746F2073656E642E93
:102FBE00005B4552524F525D20496E76616C6964DA
:102FCE0020616464726573732E005B444154415DED
:102FDE003B005B4552524F525D204661696C656401
:102FEE0020746F20696E6974204C6F52612E000040
:00000001FF
